:060000000A128A1110290A
:10000800BE00030EBF000B1912280B1824280C1869
:1000180017283F0E8300BE0E3E0E09004014F6302E
:1000280081000B11072803138312B103B203B30332
:1000380003194015C2308F00F7308E000C100728C6
:100048000B10061CC315861CC316061D431607286D
:100200008A010A140F3982073F3406345B344F34B5
:1002100066346D347D3407347F346F340034090024
:10022000031783168801890103138316850187014B
:100230008801091086110612861286130614861488
:100240000615031383128501860187018801890140
:10025000C101C201B901BA01BB01BC01C301C301A3
:10026000B601B701B801B101B201B301C001B401D7
:10027000B5014114421443144D22031383160F1386
:100280008F160F160313831681130313831215148D
:100290009514151566217421552162217A21842136
:1002A00033225E224018092B4F2903138316811233
:1002B000811101158110011403138312F63081009E
:1002C0000B1108008B160B118B15080003138312FA
:1002D00090109016101610148E018F01C2308F00EE
:1002E000F7308E000C100800031383160C140B1744
:1002F0008B17080003138316161496141615031390
:10030000831206080B100800C31DC229061CC2294F
:1003100043189D29C318A6294319B029431BBA299C
:10032000C31B9329322A8611061286128613C31321
:100330004314C311C3124312322A86153608BA0079
:100340004310C314C311C3124312322A8611061676
:100350003708BB00C3104315C311C3124312322A1E
:10036000061286163808BC0043114317C311C31286
:100370004312322A861286174313C317C311C312BE
:100380004312322AC31E012A861C012AC318CF2910
:100390004319DA29431BE529C31BF029322ABA0A7B
:1003A00015303A0203190A300319BA00C311C312F7
:1003B0004312322ABB0A15303B0203190A300319D3
:1003C000BB00C311C3124312322ABC0A15303C02CF
:1003D00003190A300319BC00C311C3124312322A95
:1003E00049308800C31BF529F829B101B201B301D6
:1003F000B6013A08B600C3134314C21042114214A6
:10040000322A431E322A861C322AC3180E2A431966
:10041000192A431B242AC31B2F2A322ABA03093064
:100420003A02031914300319BA00C311C31243125C
:10043000322ABB0309303B02031914300319BB00F5
:10044000C311C3124312322ABC0309303C02031900
:1004500014300319BC00C311C3124312322A86138D
:10046000C3134314080043183E2AC318422A4319F1
:10047000462A431B492AC31B4C2A4C2A431C4214BC
:1004800042104C2A86123A08B9004C2A3B08B9009F
:100490004C2A3C08B9004C2A08000A30B600B700C4
:1004A000B8003608B100B2003707B3004C308800FE
:1004B000401188004011C211421308004218652AF9
:1004C000C218832A4219A52AC82A401D712A360853
:1004D000B100B2003707B3004C3088004011C211A0
:1004E0004213063031020319C215C219C92A03305A
:1004F000310203194217421BD02A0030310203197E
:1005000040154019D62A401D902A3708B200B30082
:100510003807B1008801613088004011C015B4016E
:10052000C019932AC82A0630320203194216421A09
:10053000DF2A0330320203194217421BE62A003039
:100540003202031940154019EC2A401DB32A38081D
:10055000B100B3003607B2008801093088000914E1
:1005600040114016B401401AB62AC82A0630330298
:100570000319C216C21AF32A0330330203194217B1
:10058000421BFA2A00303302031940154019002B90
:1005900008004318CC2ACE2A0815CF2A0811772A3A
:1005A000C21188124A30880042137D2A4210C214B8
:1005B000B101B201B301880142124213C82AC31823
:1005C000E22AE42A8816E52A8812992A4212881219
:1005D0005130880042139F2AC2104215B101B20166
:1005E000B3018801C82A4319F62AF82A0914E52A12
:1005F0000910BC2AC2120910893088004213C22A8D
:1006000042114214B101B201B3018801C211421377
:10061000C82A40108501A101A001A301A201A501E2
:10062000A401A701A6016223C11B2E2B4118272B71
:10063000C118342B41193A2BC119402B411A462BB2
:10064000C11A4C2B411B572BC11B2E2B4F292A089B
:100650008700051005144110C1144F29290887008F
:100660008514C11341144F292B0887000515C110AB
:1006700041154F292C08870085154111C1154F29B7
:100680002D0887000516C11141164F292E08870035
:1006900085164112C1164F292F0887004318512B88
:1006A000532B0513542B0517C11241174F2930083E
:1006B000870043185C2B5E2B85135F2B8517411336
:1006C000C1174F293108B5000A30B502A10A031835
:1006D000642B0130A1020A30B50721080F3900212F
:1006E000AA000130B502A00A0318712B01302002C4
:1006F0000F390021A9003208B5000A30B502A30A5B
:1007000003187D2B0130A3020A30B50723080F39E7
:100710000021AB000130B502A20A03188A2B013078
:1007200022020F390021AC003308B5000A30B502AF
:10073000A50A0318962B0130A5020A30B507250833
:100740000F390021AD000130B502A40A0318A32B14
:10075000013024020F390021AE003908B5000A30FB
:10076000B502A70A0318AF2B0130A7020A30B5075C
:1007700027080F390021AF000130B502A60A03187F
:0E078000BC2B013026020F390021B00008000A
:04400E00C430FF3F7C
:00000001FF
