:060000000A128A1110290A
:10000800F000030EF1000B1912288C1824280C1884
:100018001728710E8300F00E700E09007214F63066
:1000280081000B11072803138312B003B103B20335
:1000380003197215C2308F00F7308E000C10072894
:100048009101B30A8C10331C2A282E287610F6103A
:0C005800761131287614F614761507286E
:100200008A010A140F3982073F3406345B344F34B5
:1002100066346D347D3407347F346F340034090024
:10022000031783168801890103138316850187014B
:10023000880186010910861106128612861306149B
:100240008614061503138312850186018701880130
:100250008901F301F401F601B501B601B701B0015E
:10026000B101B201F201B301B401731474147E211F
:10027000031383160F138F160F16572165216B2159
:100280007A21472154218D217218262A43290313EC
:100290008316811281110115811001140313831239
:1002A000F63081000B1108008B160B1108000313A8
:1002B000831290109016101610148E018F01C23008
:1002C0008F00F7308E000C100800031383160C14F7
:1002D0000B178B17080003138312121592141210B8
:1002E00012179216121692158C10031383167A3079
:1002F00092000800031383168C1408000A30B5001E
:10030000B600B7003508B000B1003607B2004C3077
:1003100088007211F4117413080005138513741802
:100320009629F418AD297419CF29EC29721D9B293F
:100330007211F4117413063030020319F415F41914
:10034000ED290330300203197417741BF4290030AF
:100350003002031972157219FA29721DBA2936086A
:10036000B100B2003707B000880161308800721117
:10037000F215B301F219BD29EC2906303102031937
:100380007416741A032A0330310203197417741B8C
:100390000A2A00303102031972157219102A721DCF
:1003A000DD293708B000B2003507B10088010930F7
:1003B0008800091472117216B301721AE029EC292F
:1003C000063032020319F416F41A182A03303202E6
:1003D00003197417741B1F2A08007618F029F229D4
:1003E0000815F3290811A129F41188124A30880050
:1003F0007413A7297410F414B001B101B20188017B
:1004000074127413EC29F618062A082A8816092A89
:100410008812C32974128812513088007413C929B4
:10042000F4107415B001B101B2018801F412EC2985
:1004300076191B2A1D2A0914092A0910EC29F4121D
:1004400009100930091488007413EC297210850111
:10045000A101A001A301A201A501A401A701A60178
:1004600072227318422AF3184E2A7319542AF31968
:100470005A2A731A602AF31A662A731B6C2AF31B12
:10048000482A43292908870005147310F3144329C7
:10049000280887008514F313731443292A0887005A
:1004A0000515F310731543292B0887008515731163
:1004B000F31543292C0887000516F31173164329F9
:1004C0002D08870085167312F31643292E0887001E
:1004D0000517F312731743292F0887008517731325
:1004E000F31743293008B4000A30B402A10A0318F4
:1004F000742A0130A1020A30B40721080F39002103
:10050000A9000130B402A00A0318812A0130200298
:100510000F390021A8003108B4000A30B402A30A40
:1005200003188D2A0130A3020A30B40723080F39BB
:100530000021AA000130B402A20A03189A2A01304D
:1005400022020F390021AB003208B4000A30B40295
:10055000A50A0318A62A0130A5020A30B407250807
:100560000F390021AC000130B402A40A0318B32AE9
:10057000013024020F390021AD000A30B4000A30E6
:10058000B402A70A0318BF2A0130A7020A30B40731
:1005900027080F390021AE000130B402A60A031863
:0E05A000CC2A013026020F390021AF000800DE
:04400E00C430FF3F7C
:00000001FF
