:060000000A128A1110290A
:10000800F000030EF1000B1912288C1824280C1884
:100018001728710E8300F00E700E09007214F63066
:1000280081000B11072803138312B003B103B20335
:1000380003197215C2308F00F7308E000C10072894
:100048009101B303031929282A28741374178817F0
:040058008C100728D9
:100200008A010A140F3982073F3406345B344F34B5
:1002100066346D347D3407347F346F340034090024
:10022000031783168801890103138316850187014B
:100230008801091086110612861286130614861488
:100240000615031383128501860187018801890140
:10025000F301B501B601B701B001B101B201F2017C
:10026000B301B401731474147B21031383160F13A9
:100270008F160F16542162216821772144215121C4
:100280008A217218A829402903138316811281112B
:1002900001158110011403138312F63081000B1134
:1002A00008008B160B110800031383129010901690
:1002B000101610148E018F01C2308F00F7308E009F
:1002C0000C100800031383160C140B178B1708006F
:1002D000031383121215921412101217921612168B
:1002E00092158C10031383167A30920008000313C2
:1002F00083168C1408000A30B500B600B700350824
:10030000B000B1003607B2004C3088007211F41111
:10031000741208000513851374188F29A029721D03
:1003200094297211F4117412063030020319F41575
:10033000F419A1290330300203197416741AA22982
:1003400008000911F41188124A3088007412A0299B
:1003500072108501A101A001A301A201A501A401C0
:10036000A701A601F4217318C429F318D029731921
:10037000D629F319DC29731AE229F31AE829731B29
:10038000EE29F31BCA294029290887000514731098
:10039000F3144029280887008514F31373144029A7
:1003A0002A0887000515F310731540292B088700CC
:1003B00085157311F31540292C0887000516F311D4
:1003C000731640292D08870085167312F3164029ED
:1003D0002E0887000517F312731740292F0887008E
:1003E00085177313F31740293008B4000A30B4029C
:1003F000A10A0318F6290130A1020A30B407210826
:100400000F390021A9000130B402A00A0318032A01
:10041000013020020F390021A8003108B4000A3051
:10042000B402A30A03180F2A0130A3020A30B4074A
:1004300023080F390021AA000130B402A20A0318D0
:100440001C2A013022020F390021AB003208B4000F
:100450000A30B402A50A0318282A0130A5020A307E
:10046000B40725080F390021AC000130B402A40AFA
:100470000318352A013024020F390021AD000A305B
:10048000B4000A30B402A70A0318412A0130A702B7
:100490000A30B40727080F390021AE000130B4023A
:1004A000A60A03184E2A013026020F390021AF0098
:0204B000080042
:04400E00C430FF3F7C
:00000001FF
