:060000000A128A1110290A
:10000800F000030EF1000B1912288C1824280C1884
:100018001728710E8300F00E700E09007214F63066
:1000280081000B11072803138312B003B103B20335
:1000380003197215C2308F00F7308E000C10072894
:100048009101B30A8C10331C2A282C2874132D28EC
:0400580074170728EA
:100200008A010A140F3982073F3406345B344F34B5
:1002100066346D347D3407347F346F340034090024
:10022000031783168801890103138316850187014B
:100230008801860109100313831285018601870155
:1002400088018901F301B501B601B701B001B1011F
:10025000B201F201B40173147414742103138316F0
:100260000F138F160F164D215B21612170213D2147
:100270004A2183217218A729392903138316811271
:10028000811101158110011403138312F6308100CE
:100290000B1108008B160B1108000313831290102A
:1002A0009016101610148E018F01C2308F00F73097
:1002B0008E000C100800031383160C140B178B17F9
:1002C00008000313831212159214121012179216BB
:1002D000121692158C10031383167A3092000800C0
:1002E000031383168C1408000A30B500B600B7005B
:1002F0003508B000B1003607B2004C3088007211EA
:10030000F4117412080005138513741888299929AB
:10031000721D8D297211F411741206303002031906
:10032000F415F4199A290330300203197416741A5B
:10033000A1290800741B9D299F290815A0290811CF
:100340009329F41188124A30880074129929721086
:100350008501A101A001A301A201A501A401A7019A
:10036000A601F3217318C329F318CF297319D529CE
:10037000F319DB29731AE129F31AE729731BED2915
:10038000F31BC92939292908870005147310F314B0
:100390003929280887008514F313731439292A088A
:1003A00087000515F310731539292B08870085156B
:1003B0007311F31539292C0887000516F3117316EC
:1003C00039292D08870085167312F31639292E084E
:1003D00087000517F312731739292F08870085172F
:1003E0007313F31739293008B4000A30B402A10A94
:1003F0000318F5290130A1020A30B40721080F398A
:100400000021A9000130B402A00A0318022A013019
:1004100020020F390021A8003108B4000A30B402CC
:10042000A30A03180E2A0130A3020A30B4072308D6
:100430000F390021AA000130B402A20A03181B2AB6
:10044000013022020F390021AB003208B4000A301B
:10045000B402A50A0318272A0130A5020A30B407FE
:1004600025080F390021AC000130B402A40A03189A
:10047000342A013024020F390021AD000A30B400C3
:100480000A30B402A70A0318402A0130A7020A3032
:10049000B40727080F390021AE000130B402A60AC4
:1004A00003184D2A013026020F390021AF00080041
:04400E00C430FF3F7C
:00000001FF
