:060000000A128A1110290A
:10000800F000030EF1000B1912288C1824280C1884
:100018001728710E8300F00E700E09007214F63066
:1000280081000B11072803138312B003B103B20335
:1000380003197215C2308F00F7308E000C10072894
:100048009101B30A8C10331C2A282E287610F6103A
:0C005800761131287614F614761507286E
:100200008A010A140F3982073F3406345B344F34B5
:1002100066346D347D3407347F346F340034090024
:10022000031783168801890103138316850187014B
:10023000880186010910861106128612861306149B
:100240008614061503138312850186018701880130
:100250008901F301F401F601B501B601B701B0015E
:10026000B101B201F201B301B401731474147E211F
:10027000031383160F138F160F16572165216B2159
:100280007A21472154218D2172183C2A43290313D6
:100290008316811281110115811001140313831239
:1002A000F63081000B1108008B160B1108000313A8
:1002B000831290109016101610148E018F01C23008
:1002C0008F00F7308E000C100800031383160C14F7
:1002D0000B178B17080003138312121592141210B8
:1002E00012179216121692158C10031383167A3079
:1002F00092000800031383168C1408000A30B5001E
:10030000B600B7003508B000B1003607B2004C3077
:1003100088007211F4117413080005138513741802
:100320009629F418B4297419D629F929721DA2291D
:100330003508B000B1003607B2004C3088007211A9
:10034000F4117413063030020319F415F419FA2964
:100350000330300203197417741B012A0030300275
:10036000031972157219072A721DC1293608B100C6
:10037000B2003707B0008801613088007211F215B1
:10038000B301F219C429F929063031020319741690
:10039000741A102A0330310203197417741B172AB8
:1003A000003031020319721572191D2A721DE429D9
:1003B0003708B000B2003507B10088010930880065
:1003C000091472117216B301721AE729F92906305D
:1003D00032020319F416F41A262A033032020319E2
:1003E0007417741B2D2A003032020319721572190A
:1003F000332A08007618FD29FF290815002A08115C
:10040000A829F41188124A3088007413AE29741098
:10041000F414B001B101B201880174127413F92906
:10042000F618132A152A8816162A8812CA29741251
:100430008812513088007413D029F4107415B0015B
:10044000B101B2018801F4127413F9297619292A2D
:100450002B2A0914162A0910ED29F41209108930E3
:1004600088007413F32974117414B001B101B2013E
:100470008801F4117413F92972108501A101A001FA
:10048000A301A201A501A401A701A6018822731856
:10049000582AF318642A73196A2AF319702A731AEE
:1004A000762AF31A7C2A731B822AF31B5E2A4329BD
:1004B0002908870005147310F314432928088700BE
:1004C0008514F313731443292A0887000515F310C4
:1004D000731543292B08870085157311F3154329DC
:1004E0002C0887000516F311731643292D08870081
:1004F00085167312F31643292E0887000517F31289
:10050000731743292F08870085177313F31743299F
:100510003008B4000A30B402A10A03188A2A013054
:10052000A1020A30B40721080F390021A9000130C7
:10053000B402A00A0318972A013020020F390021C3
:10054000A8003108B4000A30B402A30A0318A32A91
:100550000130A3020A30B40723080F390021AA0092
:100560000130B402A20A0318B02A013022020F3966
:100570000021AB003208B4000A30B402A50A031807
:10058000BC2A0130A5020A30B40725080F39002122
:10059000AC000130B402A40A0318C92A01302402B5
:1005A0000F390021AD000A30B4000A30B402A70AA6
:1005B0000318D52A0130A7020A30B40727080F39DB
:1005C0000021AE000130B402A60A0318E22A01306D
:0A05D00026020F390021AF000800D9
:04400E00C430FF3F7C
:00000001FF
