:060000000A128A1110290A
:10000800F000030EF1000B1912280B1824280C1805
:100018001728710E8300F00E700E09007214F63066
:1000280081000B11072803138312B103B203B30332
:1000380003197215C2308F00F7308E000C10072894
:100048000B10061CF515861CF516061D75160728D7
:100200008A010A140F3982073F3406345B344F34B5
:1002100066346D347D3407347F346F340034090024
:10022000031783168801890103138316850187014B
:100230008801091086110612861286130614861488
:100240000615031383128501860187018801890140
:10025000F301F401B901BA01BB01BC01F501F501DB
:10026000B601B701B801B101B201B301F201B401A5
:10027000B5017314741475144E22031383160F13EF
:100280008F160F160313831681130313831215148D
:100290009514151566217421552162217A21842136
:1002A00037225F2272180C2B4F29031383168112F9
:1002B000811101158110011403138312F63081009E
:1002C0000B1108008B160B118B15080003138312FA
:1002D00090109016101610148E018F01C2308F00EE
:1002E000F7308E000C100800031383160C140B1744
:1002F0008B17080003138316161496141615031390
:10030000831206080B100800F51DC229061CC2291D
:1003100075189D29F518A6297519B029751BBA29D4
:10032000F51B9329362A8611061286128613F513B9
:100330007514F511F5127512362A86153608BA00AD
:100340007510F514F511F5127512362A8611061678
:100350003708BB00F5107515F511F5127512362A20
:10036000061286163808BC0075117517F511F512BE
:100370007512362A861286177513F517F511F512C0
:100380007512362AF51E052A861C052AF518CF296E
:100390007519DA29751BE529F51BF029362ABA0AE1
:1003A00015303A0203190A300319BA00F511F51293
:1003B0007512362ABB0A15303B0203190A3003199D
:1003C000BB00F511F5127512362ABC0A15303C0235
:1003D00003190A300319BC00F511F5127512362AFB
:1003E00049308800F51BF529F829B101B201B301A4
:1003F000B6013A08B6003B08B7003C08B800F51350
:100400007514F41074117414362A751E362A861C5D
:10041000362AF518122A75191D2A751B282AF51B6C
:10042000332A362ABA0309303A0203191430031961
:10043000BA00F511F5127512362ABB0309303B02DA
:10044000031914300319BB00F511F5127512362A81
:10045000BC0309303C02031914300319BC00F51128
:10046000F5127512362A8613F513751408007518DF
:10047000422AF518432A7519472A751B4A2AF51B83
:100480004D2A4D2A4D2A86123A08B9004D2A3B08BA
:10049000B9004D2A3C08B9004D2A08000A30B600C0
:1004A000B700B8003608B100B2003707B3004C30CF
:1004B0008800721188007211F41174130800741806
:1004C000662AF418842A7419A62AC92A721D722A67
:1004D0003608B100B2003707B3004C308800721103
:1004E000F4117413063031020319F415F419CA2AF1
:1004F0000330310203197417741BD12A0030310202
:10050000031972157219D72A721D912A3708B20081
:10051000B3003807B1008801613088007211F2150C
:10052000B401F219942AC92A06303202031974164A
:10053000741AE02A0330320203197417741BE72A75
:1005400000303202031972157219ED2A721DB42A95
:100550003808B100B3003607B200880109308800BE
:10056000091472117216B401721AB72AC92A063018
:1005700033020319F416F41AF62A0330330203196E
:100580007417741BFD2A0030330203197215721997
:10059000032B08007518CD2ACF2A0815D02A081178
:1005A000782AF41188124A30880074137E2A741055
:1005B000F414B101B201B301880174127413C92A91
:1005C000F518E32AE52A8816E62A88129A2A741270
:1005D0008812513088007413A02AF4107415B101E8
:1005E000B201B3018801F4127413C92A7519F92AEA
:1005F000FB2A0914E62A0910BD2AF41209108930D1
:1006000088007413C32A74117414B101B201B301C8
:100610008801F4117413C92A72108501A101A00187
:10062000A301A201A501A401A701A6016423F31B54
:10063000302B73182A2BF318362B73193C2BF31914
:10064000422B731A482BF31A4E2B731B592BF31B97
:10065000302B4F292A08870005147310F3144F29F3
:10066000290887008514F31373144F292B0887007A
:100670000515F31073154F292C0887008515731184
:10068000F3154F292D0887000516F31173164F290E
:100690002E08870085167312F3164F292F0887003E
:1006A0007518532B552B0513562B0517F31273177B
:1006B0004F293008870075185E2B602B8513612B3E
:1006C00085177313F3174F293108B5000A30B502A7
:1006D000A10A0318662B0130A1020A30B5072108D0
:1006E0000F390021AA000130B502A00A0318732BAC
:1006F000013020020F390021A9003208B5000A306C
:10070000B502A30A03187F2B0130A3020A30B507F4
:1007100023080F390021AB000130B502A20A0318EB
:100720008C2B013022020F390021AC003308B500B8
:100730000A30B502A50A0318982B0130A5020A3029
:10074000B50725080F390021AD000130B502A40A14
:100750000318A52B013024020F390021AE003908FF
:10076000B5000A30B502A70A0318B12B0130A70261
:100770000A30B50727080F390021AF000130B50254
:10078000A60A0318BE2B013026020F390021B00043
:0207900008005F
:04400E00C430FF3F7C
:00000001FF
