:060000000A128A1110290A
:10000800F000030EF1000B190E28710E8300F00E9C
:0E001800700E09007214E13081080B110728E8
:100200008A010A140F3982073F3406345B344F34B5
:1002100066346D347D3407347F346F340034090024
:10022000031783168801890103138316850187014B
:100230008801091086110612861286130614861488
:100240000615031383128501860187018801890140
:10025000F301B301B601F201B101B201731403134A
:1002600083160F138F160F163921462172184A294B
:100270003629031383168112811101118110011493
:1002800003138312E13081000B1108008B178B16CA
:100290000B11080072108501A101A001A301A201A8
:1002A000A501A401A701A601922173186229F318E0
:1002B0006E2973197429F3197A29731A8029F31A8C
:1002C000682936292908870005147310F314362984
:1002D000280887008514F312731436292A0887002A
:1002E0000515F310731536292B0887008515731132
:1002F000F31536292C0887000516F31173163629D5
:100300002D08870085167312F31636292E088700EC
:100310000517F312731736292F08870085177313F3
:10032000F31736290A30B30006303302B600360818
:10033000B1000030A1000030A0000030A300003068
:10034000A2000030A5000030A4000A30B102A10ACA
:100350000318A5290130A1020A30B10721080F397D
:100360000021A9000130B102A00A0318B22901300E
:1003700020020F390021A8003608B1000A30B1026E
:10038000A30A0318BC290130A3020A30B1072308CD
:100390000F390021AA000130B102A20A0318CB29AB
:1003A000013022020F390021AB003608B1000A30BB
:1003B000B102A50A0318D5290130A5020A30B107F8
:1003C00025080F390021AC000130B102A40A03183E
:0E03D000E429013024020F390021AD0008009D
:04400E00C430FF3F7C
:00000001FF
