:060000000A128A1110290A
:10000800F000030EF1000C1815280B191028710EBA
:100018008300F00E700E09007214F63081000B1187
:10002800072803138312B60303197215C2308F0011
:08003800F7308E000C100728C0
:100200008A010A140F3982073F3406345B344F34B5
:1002100066346D347D3407347F346F340034090024
:10022000031783168801890103138316850187014B
:100230008801091086110612861286130614861488
:100240000615031383128501860187018801890140
:10025000F301B301B001B601F201B101B2017314AF
:100260001222031383160F138F160F164D215B21D5
:100270003D214A21721861293A29031383168112FC
:10028000811101158110011403138312F6308100CE
:100290000B1108008B160B1108000313831290102A
:1002A0009016101610148E018F01C2308F00F73097
:1002B0008E000C100800031383160C140B178B17F9
:1002C000080072108501A101A001A301A201A501EE
:1002D000A401A701A601AD2173187D29F31889296E
:1002E00073198F29F3199529731A9B29F31AA129D8
:1002F000731BA729F31B83293A29290887000514B2
:100300007310F3143A29280887008514F313731423
:100310003A292A0887000515F31073153A292B0886
:10032000870085157311F3153A292C0887000516E7
:10033000F31173163A292D08870085167312F316E8
:100340003A292E0887000517F31273173A292F0848
:10035000870085177313F3173A293608B1000A305E
:10036000B102A10A0318AD290130A1020A30B10778
:1003700021080F390021A9000130B102A00A031899
:10038000BC29013020020F390021A8003908B10032
:100390000A30B102A30A0318C6290130A3020A30A9
:1003A000B10723080F390021AA000130B102A20AC7
:1003B0000318D529013022020F390021AB003C0877
:1003C000B1000A30B102A50A0318DF290130A502E5
:1003D0000A30B10725080F390021AC000130B10205
:1003E000A40A0318EE29013024020F390021AD00C0
:1003F0003F08B1000A30B102A70A0318F8290130FA
:10040000A7020A30B10727080F390021AE000130DA
:10041000B102A60A0318072A013026020F3900216B
:10042000AF0008000A30B3000630B3023308B6004C
:020430000800C2
:04400E00C430FF3F7C
:00000001FF
