:060000000A128A1110290A
:10000800BC00030EBD000B1916280C181B280B1872
:1000180038280B100B110C108C103D0E8300BC0EF1
:100028003C0E09003E14F63081000B11072803131B
:100038008312B003B103B20303193E15C2308F0017
:10004800F7308E000C10072891018C10B30A331C6E
:1000580030283318342837284110C1104111372867
:100068004114C11441150728061CC115861CC11668
:0A007800061D411606080B100728AC
:100200008A010A140F3982073F3406345B344F34B5
:1002100066346D347D3407347F346F340034090024
:10022000031783168801890103138316850187014B
:100230008801091086110612861286130614861488
:100240000615031383128501860187018801890140
:10025000BF01C001B801B901BA01C101C101B501B5
:10026000B601B701B001B101B201BE01B301B401E1
:100270003F1440144114C121031383160F138F162A
:100280000F16031383168113031383121514951489
:100290001515672175217B218A21562163218E2125
:1002A0009821B621D2213E18802A502903138316A3
:1002B0008112811101158110011403138312F6308C
:1002C00081000B1108008B160B118B15080003130E
:1002D000831290109016101610148E018F01C230E8
:1002E0008F00F7308E000C100800031383160C14D7
:1002F0000B178B1708000313831212159214121098
:1003000012179216121692158C10031383167A3058
:1003100092000800031383168C140800031383163D
:100320001614961416150313831206080B100800F2
:10033000C11DAB29061CAB294118A529B5290513F8
:100340008513861141124114B52986153508B90067
:100350004110C114B529C11EB429861CB429C11885
:10036000B229B5298613B529861708004118BB297B
:10037000C118BC29C029C02986123908B800C02973
:1003800008000A30B500B600B7003508B000B1006B
:100390003607B2004C3088003E1188003E11C01173
:1003A000401308004018D929C018F7294019192A04
:1003B0003C2A3E1DE5293508B000B1003607B200E1
:1003C0004C3088003E11C011401306303002031932
:1003D000C015C0193D2A0330300203194017401BD5
:1003E000452A0030300203193E153E194B2A3E1DA6
:1003F000042A3608B100B2003707B0008801613026
:1004000088003E11BE15B301BE19072A3C2A0630EA
:10041000310203194016401A542A033031020319DD
:100420004017401B5B2A0030310203193E153E196C
:10043000612A3E1D272A3708B000B2003507B100F7
:1004400088010930880009143E113E16B3013E1A96
:100450002A2A3C2A063032020319C016C01A6A2A18
:100460000330320203194017401B712A0030320258
:1004700003193E153E19772A08004118412A411CEC
:10048000432A0815442A0811EB29C01188124A3062
:1004900088004013F1294010C014B001B101B2012D
:1004A0008801401240133C2AC118572A592A88163D
:1004B0005A2A88120D2A401288125130880040139F
:1004C000132AC0104015B001B101B2018801C01259
:1004D00040133C2A41196D2A6F2A09145A2A09101F
:1004E000302AC0120910893088004013362A401182
:1004F0004014B001B101B2018801C01140133C2A7F
:100500003E108501A101A001A301A201A501A40142
:10051000A701A601D122BF1BA72A3F18A12ABF18F5
:10052000AD2A3F19B32ABF19B92A3F1ABF2A411C65
:100530009C2ABF12BF175029BF1AC52A3F1BCB2ABE
:1005400050292908870005143F10BF145029280896
:1005500087008514BF133F1450292A08870005150A
:10056000BF103F1550292B08870085153F11BF1577
:1005700050292C0887000516BF113F1650292D0859
:10058000870085163F12BF1650292E0887000517D1
:10059000BF123F1750292F08870085173F13BF1739
:1005A00050293008B4000A30B402A10A0318D32A33
:1005B0000130A1020A30B40721080F390021A90037
:1005C0000130B402A00A0318E02A013020020F39DA
:1005D0000021A8003108B4000A30B402A30A0318AD
:1005E000EC2A0130A3020A30B40723080F39002196
:1005F000AA000130B402A20A0318F92A013022022B
:100600000F390021AB003208B4000A30B402A50A49
:100610000318052B0130A5020A30B40725080F394D
:100620000021AC000130B402A40A0318122B0130DF
:1006300024020F390021AD003808B4000A30B4029A
:10064000A70A03181E2B0130A7020A30B407270897
:100650000F390021AE000130B402A60A03182B2B7B
:0C066000013026020F390021AF00080015
:04400E00C430FF3F7C
:00000001FF
