:060000000A128A11152905
:100200008A010A140F3982073F3406345B344F34B5
:1002100066346D347D3407347F346F3477347C3406
:1002200039345E347934713400340317831688010D
:10023000890103138316061486140710871007110B
:1002400087110712871207138713081088100811E7
:1002500088110910051085100511851183120313EB
:10026000860187018801890185013C21432103130F
:1002700083125D2150293929031383160F138F161A
:100280000F160F1408000313831681128111011534
:1002900081140114031383120C3081000B11080028
:1002A0000B1D3929091070215721880A3929031398
:1002B00083120C3081000B11080006186221861889
:1002C0006921080006186229850A050800218700AF
:1002D00008008618692985030508002187000800A1
:1002E0000508080203190914031988010800080009
:04400E00C430FF3F7C
:00000001FF
