:060000000A128A1110290A
:10000800F000030EF1000C1812288C181B280B198D
:100018002828710E8300F00E700E09000313831256
:10002800850AC2308F00F7308E000C100728910126
:1000380003138312890A8C10F2192428F21D26282A
:10004800F2112728F2150728E13081000B117214EC
:02005800072877
:100200008A010A140F3982073F3406345B344F34B5
:1002100066346D347D3407347F346F340034090024
:10022000031783168801890103138316870185014B
:1002300086010810881009100313831285018601B6
:10024000870188018901F201F214F2150313831664
:100250000F138F160F16432160215121662136217D
:100260006A21F219352972186D2931290313831671
:100270008112811101118110011403138312E130E5
:1002800081000B11080003138312901090161016B2
:1002900010148E018F01C2308F00F7308E000C10C9
:1002A00008000313831212159214121012179216DB
:1002B000121692158C10031383167A3092000800E0
:1002C000031383160C140B178B17080003138316E4
:1002D0008C1408008B160B11080088018B218221D9
:1002E0007210F218762972197C29312922088700A8
:1002F0000814F21072153129210887008814721130
:10030000F214312922080F390021A20021080F39E7
:100310000021A10008000508A3000A30A400003055
:10032000A2000030A1002408A302A20A0318932906
:100330000130A2020A30A3070130A4002408A3025E
:0C034000A10A03189C290130A10208004A
:04400E00C430FF3F7C
:00000001FF
