:060000000A128A1110290A
:10000800F000030EF1000C1812288C181B280B198D
:100018002128710E8300F00E700E0900031383125D
:10002800850AC2308F00F7308E000C100728910126
:1000380003138312890A8C100728E13081080B11F9
:0400480072140728FF
:100200008A010A140F3982073F3406345B344F34B5
:1002100066346D347D3407347F346F340034090024
:10022000031783168801890103138316870185014B
:1002300086010810881009100313831285018601B6
:10024000870188018901F201F214031383160F1349
:100250008F160F1640215D214E2163213321672126
:1002600072186A2930290313831681128111011132
:100270008110011403138312E13081000B11080077
:100280000313831290109016101610148E018F0114
:10029000C2308F00F7308E000C1008000313831259
:1002A00012159214121012179216121692158C1023
:1002B000031383167A3092000800031383160C147C
:1002C0000B178B170800031383168C1408008B166A
:1002D0000B1108007210880188217F21F218732900
:1002E000721979293029240887000814F210721530
:1002F00030292308870088147211F2143029240849
:100300000F390021A40023080F390021A3000800A1
:100310000A30A8002808A5000A30A6000030A40072
:100320000030A3000A30A6002608A502A40A03187C
:1003300092290130A4020A30A5070130A600260840
:0E034000A502A30A03189D290130A30208009C
:04400E00C430FF3F7C
:00000001FF
