:060000000A128A11152905
:10000800A000030EA1000B180E20210E8300A00EE5
:10001800200E090003138312861C850A061D85031A
:0600280006080B100800A1
:100200008A010A140F3982073F3406345B344F34B5
:1002100066346D347D3407347F346F3477347C3406
:1002200039345E347934713400340317831688010D
:1002300089010313831605108510051185118701A7
:10024000860188018614061503138312860187012F
:10025000880185018B1748214F2131213921432104
:100260002D29031383168113031383129514151577
:100270000800031383169614161503138312060839
:100280000B108B15080003010508002187000800EA
:10029000031383160F138F120F160F140800031386
:1002A00083168112811101158114011408000800C0
:04400E00C430FF3F7C
:00000001FF
