:060000000A128A1110290A
:10000800F000030EF1000B190E28710E8300F00E9C
:0E001800700E0900E13081080B1174140728E6
:100200008A010A140F3982073F3406345B344F34B5
:1002100066346D347D3407347F346F340034090024
:10022000031783168801890103138316870185014B
:100230008801061486140615861106128612861386
:100240000910031383128501860187018801890142
:10025000F401F5017514031383160F138F160F168F
:10026000352142217418592932290313831681122A
:10027000811101118110011403138312E1308100F7
:100280000B1108008B160B1108000313831290103A
:100290009016101610148E018F01C2308F00F730A7
:1002A0008E000C100800031383160C140B178B1709
:1002B00008007410850177216E2175186229F518E0
:1002C000682932292108870005147510F514322990
:1002D000200887008514F5107514322921080F397C
:1002E0000021A10020080F390021A00008000A30D9
:1002F000A60006302602A4002408A2000A30A300AB
:100300000030A1000030A0000A30A3002308A202A0
:10031000A10A031884290130A1020A30A207013082
:10032000A3002308A202A00A03188F290130A0020B
:020330000800C3
:04400E00C430FF3F7C
:00000001FF
