:060000000A128A1110290A
:10000800F000030EF1000C1810280B191828710EB7
:100018008300F00E700E090003138312C2308F00A4
:10002800F7308E000C100728E13081080B1174148A
:02003800072897
:100200008A010A140F3982073F3406345B344F34B5
:1002100066346D347D3407347F346F340034090024
:10022000031783168801890103138316870185014B
:100230008801061486140615861106128612861386
:100240000910031383128501860187018801890142
:10025000F401F5017514031383160F138F160F168F
:10026000442152213721582174185B293429031362
:10027000831681128111011181100114031383125D
:10028000E13081000B1108000313831290109016C7
:10029000101610148E018F01C2308F00F7308E00BF
:1002A0000C100800031383160C140B178B1708008F
:1002B0008B160B11080074108501B521A02175184B
:1002C0007029F5187C2975198229F5198829751A5C
:1002D0008E29F51A9429751B9A29F51B762934293C
:1002E0002308870005147510F514342922088700A7
:1002F0008514F51375143429250887000515F510A4
:10030000751534292408870085157511F5153429CC
:10031000270887000516F511751634292608870069
:1003200085167512F5163429290887000517F51268
:10033000751734292808870085177513F517342990
:1003400021080F390021A3002308A5002508A708CC
:100350002708A90820080F390021A2002208A400BC
:100360002408A6082608A80808000A30B0000630AD
:100370003002AE002E08AC000A30AD000030A10003
:100380000030A0000A30AD002D08AC02A10A03180D
:10039000C2290130A1020A30AC070130AD002D089E
:0E03A000AC02A00A0318CD290130A00208000B
:04400E00C430FF3F7C
:00000001FF
