:060000000A128A1110290A
:10000800F000030EF1000C1810280B191928710EB6
:100018008300F00E700E090003138312A403C2308C
:100028008F00F7308E000C100728E13081080B1183
:04003800741407280D
:100200008A010A140F3982073F3406345B344F34B5
:1002100066346D347D3407347F346F340034090024
:10022000031783168801890103138316870185014B
:100230008801061486140615861106128612861386
:100240000910031383128501860187018801890142
:10025000F401F5017514A401031383160F138F160F
:100260000F16452153213821592174185C2935294D
:1002700003138316811281110111811001140313DC
:100280008312E13081000B110800031383129010D8
:100290009016101610148E018F01C2308F00F730A7
:1002A0008E000C100800031383160C140B178B1709
:1002B00008008B160B11080075128501AA21A121D7
:1002C00075187129F5187D2975198329F51989295A
:1002D000751A8F29F51A9529751B9B29F51B772906
:1002E00035292108870005147510F51435292008D3
:1002F00087008514751275143529210887000515A6
:10030000F510751535292008870085157511F51527
:100310003529210887000516F5117516352920089D
:10032000870085167512F5163529210887000517EF
:10033000F512751735292008870085177513F517ED
:10034000352921080F390021A10020080F3900218B
:10035000A0000800A030A4002408A2000A30A300D6
:100360000030A1000030A0000A30A3002308A20240
:10037000A10A0318B4290130A1020A30A2070130F2
:10038000A3002308A202A00A0318BF290130A0027B
:02039000080063
:04400E00C430FF3F7C
:00000001FF
